{"contracts/AESSEscrow.sol":{"AESSEscrow":{"abi":[{"inputs":[{"internalType":"address","name":"_settlementEngine","type":"address"}],"stateMutability":"nonpayable","type":"constructor"},{"inputs":[],"name":"ReentrancyGuardReentrantCall","type":"error"},{"anonymous":false,"inputs":[{"indexed":false,"internalType":"uint256","name":"agreementId","type":"uint256"},{"indexed":false,"internalType":"uint256","name":"amount","type":"uint256"}],"name":"EscrowCreated","type":"event"},{"anonymous":false,"inputs":[{"indexed":false,"internalType":"uint256","name":"agreementId","type":"uint256"}],"name":"EscrowFrozen","type":"event"},{"anonymous":false,"inputs":[{"indexed":false,"internalType":"uint256","name":"agreementId","type":"uint256"},{"indexed":false,"internalType":"uint256","name":"amount","type":"uint256"}],"name":"EscrowFunded","type":"event"},{"anonymous":false,"inputs":[{"indexed":false,"internalType":"uint256","name":"agreementId","type":"uint256"},{"indexed":false,"internalType":"uint256","name":"amount","type":"uint256"}],"name":"FundsRefunded","type":"event"},{"anonymous":false,"inputs":[{"indexed":false,"internalType":"uint256","name":"agreementId","type":"uint256"},{"indexed":false,"internalType":"uint256","name":"amount","type":"uint256"}],"name":"FundsReleased","type":"event"},{"inputs":[],"name":"authorizedSettlementEngine","outputs":[{"internalType":"address","name":"","type":"address"}],"stateMutability":"view","type":"function"},{"inputs":[{"internalType":"uint256","name":"_agreementId","type":"uint256"},{"internalType":"address","name":"_worker","type":"address"}],"name":"createEscrow","outputs":[],"stateMutability":"payable","type":"function"},{"inputs":[{"internalType":"uint256","name":"","type":"uint256"}],"name":"escrows","outputs":[{"internalType":"uint256","name":"agreementId","type":"uint256"},{"internalType":"address","name":"payer","type":"address"},{"internalType":"address","name":"worker","type":"address"},{"internalType":"uint256","name":"amount","type":"uint256"},{"internalType":"enum AESSEscrow.EscrowStatus","name":"status","type":"uint8"}],"stateMutability":"view","type":"function"},{"inputs":[{"internalType":"uint256","name":"_agreementId","type":"uint256"}],"name":"freezeEscrow","outputs":[],"stateMutability":"nonpayable","type":"function"},{"inputs":[{"internalType":"uint256","name":"_agreementId","type":"uint256"}],"name":"refundFunds","outputs":[],"stateMutability":"nonpayable","type":"function"},{"inputs":[{"internalType":"uint256","name":"_agreementId","type":"uint256"}],"name":"releaseFunds","outputs":[],"stateMutability":"nonpayable","type":"function"}],"evm":{"bytecode":{"linkReferences":{},"object":"60806040523480156200001157600080fd5b50604051620010aa380380620010aa833981810160405281019062000037919062000147565b6001620000596200004d620000a860201b60201c565b620000d360201b60201c565b6000018190555080600160006101000a81548173ffffffffffffffffffffffffffffffffffffffff021916908373ffffffffffffffffffffffffffffffffffffffff1602179055505062000179565b60007f9b779b17422d0df92223018b32b4d1fa46e071723d6817e2486d003becc55f0060001b905090565b6000819050919050565b600080fd5b600073ffffffffffffffffffffffffffffffffffffffff82169050919050565b60006200010f82620000e2565b9050919050565b620001218162000102565b81146200012d57600080fd5b50565b600081519050620001418162000116565b92915050565b60006020828403121562000160576200015f620000dd565b5b6000620001708482850162000130565b91505092915050565b610f2180620001896000396000f3fe6080604052600436106100555760003560e01c8063012f52ee1461005a57806315f1bbfe1461009b5780632311580f146100c45780634d68282f146100ef578063dbcd72f014610118578063e100506714610134575b600080fd5b34801561006657600080fd5b50610081600480360381019061007c9190610b3e565b61015d565b604051610092959493929190610c32565b60405180910390f35b3480156100a757600080fd5b506100c260048036038101906100bd9190610b3e565b6101e0565b005b3480156100d057600080fd5b506100d9610451565b6040516100e69190610c85565b60405180910390f35b3480156100fb57600080fd5b5061011660048036038101906101119190610b3e565b610477565b005b610132600480360381019061012d9190610ccc565b6106e8565b005b34801561014057600080fd5b5061015b60048036038101906101569190610b3e565b6108ab565b005b60006020528060005260406000206000915090508060000154908060010160009054906101000a900473ffffffffffffffffffffffffffffffffffffffff16908060020160009054906101000a900473ffffffffffffffffffffffffffffffffffffffff16908060030154908060040160009054906101000a900460ff16905085565b600160009054906101000a900473ffffffffffffffffffffffffffffffffffffffff1673ffffffffffffffffffffffffffffffffffffffff163373ffffffffffffffffffffffffffffffffffffffff1614610270576040517f08c379a000000000000000000000000000000000000000000000000000000000815260040161026790610d69565b60405180910390fd5b610278610a31565b60008060008381526020019081526020016000209050600160048111156102a2576102a1610bbb565b5b8160040160009054906101000a900460ff1660048111156102c6576102c5610bbb565b5b14610306576040517f08c379a00000000000000000000000000000000000000000000000000000000081526004016102fd90610dd5565b60405180910390fd5b60038160040160006101000a81548160ff0219169083600481111561032e5761032d610bbb565b5b021790555060008160010160009054906101000a900473ffffffffffffffffffffffffffffffffffffffff1673ffffffffffffffffffffffffffffffffffffffff16826003015460405161038190610e26565b60006040518083038185875af1925050503d80600081146103be576040519150601f19603f3d011682016040523d82523d6000602084013e6103c3565b606091505b5050905080610407576040517f08c379a00000000000000000000000000000000000000000000000000000000081526004016103fe90610e87565b60405180910390fd5b7f7c047a089fa2e9a1f6b9ec9c93cde8781fce7ebf51035da0a2d375f26d0e970a83836003015460405161043c929190610ea7565b60405180910390a1505061044e610a54565b50565b600160009054906101000a900473ffffffffffffffffffffffffffffffffffffffff1681565b600160009054906101000a900473ffffffffffffffffffffffffffffffffffffffff1673ffffffffffffffffffffffffffffffffffffffff163373ffffffffffffffffffffffffffffffffffffffff1614610507576040517f08c379a00000000000000000000000000000000000000000000000000000000081526004016104fe90610d69565b60405180910390fd5b61050f610a31565b600080600083815260200190815260200160002090506001600481111561053957610538610bbb565b5b8160040160009054906101000a900460ff16600481111561055d5761055c610bbb565b5b1461059d576040517f08c379a000000000000000000000000000000000000000000000000000000000815260040161059490610dd5565b60405180910390fd5b60028160040160006101000a81548160ff021916908360048111156105c5576105c4610bbb565b5b021790555060008160020160009054906101000a900473ffffffffffffffffffffffffffffffffffffffff1673ffffffffffffffffffffffffffffffffffffffff16826003015460405161061890610e26565b60006040518083038185875af1925050503d8060008114610655576040519150601f19603f3d011682016040523d82523d6000602084013e61065a565b606091505b505090508061069e576040517f08c379a000000000000000000000000000000000000000000000000000000000815260040161069590610e87565b60405180910390fd5b7f80230996023d69b50793fa73f1919127c9d8e741d3989743c479169f22e7a2888383600301546040516106d3929190610ea7565b60405180910390a150506106e5610a54565b50565b6040518060a001604052808381526020013373ffffffffffffffffffffffffffffffffffffffff1681526020018273ffffffffffffffffffffffffffffffffffffffff1681526020013481526020016001600481111561074b5761074a610bbb565b5b8152506000808481526020019081526020016000206000820151816000015560208201518160010160006101000a81548173ffffffffffffffffffffffffffffffffffffffff021916908373ffffffffffffffffffffffffffffffffffffffff16021790555060408201518160020160006101000a81548173ffffffffffffffffffffffffffffffffffffffff021916908373ffffffffffffffffffffffffffffffffffffffff1602179055506060820151816003015560808201518160040160006101000a81548160ff0219169083600481111561082d5761082c610bbb565b5b02179055509050507fd2f8783c4926a733836e2cadee280c75bdf4e94b713459c91a0da70a778fb5278234604051610866929190610ea7565b60405180910390a17f911052e1be46242b46bf3c2762227ff37c000e5fe38727638096f3a17fbfe170823460405161089f929190610ea7565b60405180910390a15050565b600160009054906101000a900473ffffffffffffffffffffffffffffffffffffffff1673ffffffffffffffffffffffffffffffffffffffff163373ffffffffffffffffffffffffffffffffffffffff161461093b576040517f08c379a000000000000000000000000000000000000000000000000000000000815260040161093290610d69565b60405180910390fd5b600080600083815260200190815260200160002090506001600481111561096557610964610bbb565b5b8160040160009054906101000a900460ff16600481111561098957610988610bbb565b5b146109c9576040517f08c379a00000000000000000000000000000000000000000000000000000000081526004016109c090610dd5565b60405180910390fd5b60048160040160006101000a81548160ff021916908360048111156109f1576109f0610bbb565b5b02179055507fbe2bfd9a209a03099b196ce5a374776db5c25dadb3a1e69758070e54553db44282604051610a259190610ed0565b60405180910390a15050565b610a39610a6f565b6002610a4b610a46610ab0565b610adb565b60000181905550565b6001610a66610a61610ab0565b610adb565b60000181905550565b610a77610ae5565b15610aae576040517f3ee5aeb500000000000000000000000000000000000000000000000000000000815260040160405180910390fd5b565b60007f9b779b17422d0df92223018b32b4d1fa46e071723d6817e2486d003becc55f0060001b905090565b6000819050919050565b60006002610af9610af4610ab0565b610adb565b6000015414905090565b600080fd5b6000819050919050565b610b1b81610b08565b8114610b2657600080fd5b50565b600081359050610b3881610b12565b92915050565b600060208284031215610b5457610b53610b03565b5b6000610b6284828501610b29565b91505092915050565b610b7481610b08565b82525050565b600073ffffffffffffffffffffffffffffffffffffffff82169050919050565b6000610ba582610b7a565b9050919050565b610bb581610b9a565b82525050565b7f4e487b7100000000000000000000000000000000000000000000000000000000600052602160045260246000fd5b60058110610bfb57610bfa610bbb565b5b50565b6000819050610c0c82610bea565b919050565b6000610c1c82610bfe565b9050919050565b610c2c81610c11565b82525050565b600060a082019050610c476000830188610b6b565b610c546020830187610bac565b610c616040830186610bac565b610c6e6060830185610b6b565b610c7b6080830184610c23565b9695505050505050565b6000602082019050610c9a6000830184610bac565b92915050565b610ca981610b9a565b8114610cb457600080fd5b50565b600081359050610cc681610ca0565b92915050565b60008060408385031215610ce357610ce2610b03565b5b6000610cf185828601610b29565b9250506020610d0285828601610cb7565b9150509250929050565b600082825260208201905092915050565b7f4e6f7420617574686f72697a6564000000000000000000000000000000000000600082015250565b6000610d53600e83610d0c565b9150610d5e82610d1d565b602082019050919050565b60006020820190508181036000830152610d8281610d46565b9050919050565b7f4e6f742066756e6461626c650000000000000000000000000000000000000000600082015250565b6000610dbf600c83610d0c565b9150610dca82610d89565b602082019050919050565b60006020820190508181036000830152610dee81610db2565b9050919050565b600081905092915050565b50565b6000610e10600083610df5565b9150610e1b82610e00565b600082019050919050565b6000610e3182610e03565b9150819050919050565b7f5472616e73666572206661696c65640000000000000000000000000000000000600082015250565b6000610e71600f83610d0c565b9150610e7c82610e3b565b602082019050919050565b60006020820190508181036000830152610ea081610e64565b9050919050565b6000604082019050610ebc6000830185610b6b565b610ec96020830184610b6b565b9392505050565b6000602082019050610ee56000830184610b6b565b9291505056fea264697066735822122081c8050c18f723898014e3727fd4f0af9e44d12e6e3622b2dc045208ae2f4e2f64736f6c63430008140033","opcodes":"PUSH1 0x80 PUSH1 0x40 MSTORE CALLVALUE DUP1 ISZERO PUSH3 0x11 JUMPI PUSH1 0x0 DUP1 REVERT JUMPDEST POP PUSH1 0x40 MLOAD PUSH3 0x10AA CODESIZE SUB DUP1 PUSH3 0x10AA DUP4 CODECOPY DUP2 DUP2 ADD PUSH1 0x40 MSTORE DUP2 ADD SWAP1 PUSH3 0x37 SWAP2 SWAP1 PUSH3 0x147 JUMP JUMPDEST PUSH1 0x1 PUSH3 0x59 PUSH3 0x4D PUSH3 0xA8 PUSH1 0x20 SHL PUSH1 0x20 SHR JUMP JUMPDEST PUSH3 0xD3 PUSH1 0x20 SHL PUSH1 0x20 SHR JUMP JUMPDEST PUSH1 0x0 ADD DUP2 SWAP1 SSTORE POP DUP1 PUSH1 0x1 PUSH1 0x0 PUSH2 0x100 EXP DUP2 SLOAD DUP2 PUSH20 0xFFFFFFFFFFFFFFFFFFFFFFFFFFFFFFFFFFFFFFFF MUL NOT AND SWAP1 DUP4 PUSH20 0xFFFFFFFFFFFFFFFFFFFFFFFFFFFFFFFFFFFFFFFF AND MUL OR SWAP1 SSTORE POP POP PUSH3 0x179 JUMP JUMPDEST PUSH1 0x0 PUSH32 0x9B779B17422D0DF92223018B32B4D1FA46E071723D6817E2486D003BECC55F00 PUSH1 0x0 SHL SWAP1 POP SWAP1 JUMP JUMPDEST PUSH1 0x0 DUP2 SWAP1 POP SWAP2 SWAP1 POP JUMP JUMPDEST PUSH1 0x0 DUP1 REVERT JUMPDEST PUSH1 0x0 PUSH20 0xFFFFFFFFFFFFFFFFFFFFFFFFFFFFFFFFFFFFFFFF DUP3 AND SWAP1 POP SWAP2 SWAP1 POP JUMP JUMPDEST PUSH1 0x0 PUSH3 0x10F DUP3 PUSH3 0xE2 JUMP JUMPDEST SWAP1 POP SWAP2 SWAP1 POP JUMP JUMPDEST PUSH3 0x121 DUP2 PUSH3 0x102 JUMP JUMPDEST DUP2 EQ PUSH3 0x12D JUMPI PUSH1 0x0 DUP1 REVERT JUMPDEST POP JUMP JUMPDEST PUSH1 0x0 DUP2 MLOAD SWAP1 POP PUSH3 0x141 DUP2 PUSH3 0x116 JUMP JUMPDEST SWAP3 SWAP2 POP POP JUMP JUMPDEST PUSH1 0x0 PUSH1 0x20 DUP3 DUP5 SUB SLT ISZERO PUSH3 0x160 JUMPI PUSH3 0x15F PUSH3 0xDD JUMP JUMPDEST JUMPDEST PUSH1 0x0 PUSH3 0x170 DUP5 DUP3 DUP6 ADD PUSH3 0x130 JUMP JUMPDEST SWAP2 POP POP SWAP3 SWAP2 POP POP JUMP JUMPDEST PUSH2 0xF21 DUP1 PUSH3 0x189 PUSH1 0x0 CODECOPY PUSH1 0x0 RETURN INVALID PUSH1 0x80 PUSH1 0x40 MSTORE PUSH1 0x4 CALLDATASIZE LT PUSH2 0x55 JUMPI PUSH1 0x0 CALLDATALOAD PUSH1 0xE0 SHR DUP1 PUSH4 0x12F52EE EQ PUSH2 0x5A JUMPI DUP1 PUSH4 0x15F1BBFE EQ PUSH2 0x9B JUMPI DUP1 PUSH4 0x2311580F EQ PUSH2 0xC4 JUMPI DUP1 PUSH4 0x4D68282F EQ PUSH2 0xEF JUMPI DUP1 PUSH4 0xDBCD72F0 EQ PUSH2 0x118 JUMPI DUP1 PUSH4 0xE1005067 EQ PUSH2 0x134 JUMPI JUMPDEST PUSH1 0x0 DUP1 REVERT JUMPDEST CALLVALUE DUP1 ISZERO PUSH2 0x66 JUMPI PUSH1 0x0 DUP1 REVERT JUMPDEST POP PUSH2 0x81 PUSH1 0x4 DUP1 CALLDATASIZE SUB DUP2 ADD SWAP1 PUSH2 0x7C SWAP2 SWAP1 PUSH2 0xB3E JUMP JUMPDEST PUSH2 0x15D JUMP JUMPDEST PUSH1 0x40 MLOAD PUSH2 0x92 SWAP6 SWAP5 SWAP4 SWAP3 SWAP2 SWAP1 PUSH2 0xC32 JUMP JUMPDEST PUSH1 0x40 MLOAD DUP1 SWAP2 SUB SWAP1 RETURN JUMPDEST CALLVALUE DUP1 ISZERO PUSH2 0xA7 JUMPI PUSH1 0x0 DUP1 REVERT JUMPDEST POP PUSH2 0xC2 PUSH1 0x4 DUP1 CALLDATASIZE SUB DUP2 ADD SWAP1 PUSH2 0xBD SWAP2 SWAP1 PUSH2 0xB3E JUMP JUMPDEST PUSH2 0x1E0 JUMP JUMPDEST STOP JUMPDEST CALLVALUE DUP1 ISZERO PUSH2 0xD0 JUMPI PUSH1 0x0 DUP1 REVERT JUMPDEST POP PUSH2 0xD9 PUSH2 0x451 JUMP JUMPDEST PUSH1 0x40 MLOAD PUSH2 0xE6 SWAP2 SWAP1 PUSH2 0xC85 JUMP JUMPDEST PUSH1 0x40 MLOAD DUP1 SWAP2 SUB SWAP1 RETURN JUMPDEST CALLVALUE DUP1 ISZERO PUSH2 0xFB JUMPI PUSH1 0x0 DUP1 REVERT JUMPDEST POP PUSH2 0x116 PUSH1 0x4 DUP1 CALLDATASIZE SUB DUP2 ADD SWAP1 PUSH2 0x111 SWAP2 SWAP1 PUSH2 0xB3E JUMP JUMPDEST PUSH2 0x477 JUMP JUMPDEST STOP JUMPDEST PUSH2 0x132 PUSH1 0x4 DUP1 CALLDATASIZE SUB DUP2 ADD SWAP1 PUSH2 0x12D SWAP2 SWAP1 PUSH2 0xCCC JUMP JUMPDEST PUSH2 0x6E8 JUMP JUMPDEST STOP JUMPDEST CALLVALUE DUP1 ISZERO PUSH2 0x140 JUMPI PUSH1 0x0 DUP1 REVERT JUMPDEST POP PUSH2 0x15B PUSH1 0x4 DUP1 CALLDATASIZE SUB DUP2 ADD SWAP1 PUSH2 0x156 SWAP2 SWAP1 PUSH2 0xB3E JUMP JUMPDEST PUSH2 0x8AB JUMP JUMPDEST STOP JUMPDEST PUSH1 0x0 PUSH1 0x20 MSTORE DUP1 PUSH1 0x0 MSTORE PUSH1 0x40 PUSH1 0x0 KECCAK256 PUSH1 0x0 SWAP2 POP SWAP1 POP DUP1 PUSH1 0x0 ADD SLOAD SWAP1 DUP1 PUSH1 0x1 ADD PUSH1 0x0 SWAP1 SLOAD SWAP1 PUSH2 0x100 EXP SWAP1 DIV PUSH20 0xFFFFFFFFFFFFFFFFFFFFFFFFFFFFFFFFFFFFFFFF AND SWAP1 DUP1 PUSH1 0x2 ADD PUSH1 0x0 SWAP1 SLOAD SWAP1 PUSH2 0x100 EXP SWAP1 DIV PUSH20 0xFFFFFFFFFFFFFFFFFFFFFFFFFFFFFFFFFFFFFFFF AND SWAP1 DUP1 PUSH1 0x3 ADD SLOAD SWAP1 DUP1 PUSH1 0x4 ADD PUSH1 0x0 SWAP1 SLOAD SWAP1 PUSH2 0x100 EXP SWAP1 DIV PUSH1 0xFF AND SWAP1 POP DUP6 JUMP JUMPDEST PUSH1 0x1 PUSH1 0x0 SWAP1 SLOAD SWAP1 PUSH2 0x100 EXP SWAP1 DIV PUSH20 0xFFFFFFFFFFFFFFFFFFFFFFFFFFFFFFFFFFFFFFFF AND PUSH20 0xFFFFFFFFFFFFFFFFFFFFFFFFFFFFFFFFFFFFFFFF AND CALLER PUSH20 0xFFFFFFFFFFFFFFFFFFFFFFFFFFFFFFFFFFFFFFFF AND EQ PUSH2 0x270 JUMPI PUSH1 0x40 MLOAD PUSH32 0x8C379A000000000000000000000000000000000000000000000000000000000 DUP2 MSTORE PUSH1 0x4 ADD PUSH2 0x267 SWAP1 PUSH2 0xD69 JUMP JUMPDEST PUSH1 0x40 MLOAD DUP1 SWAP2 SUB SWAP1 REVERT JUMPDEST PUSH2 0x278 PUSH2 0xA31 JUMP JUMPDEST PUSH1 0x0 DUP1 PUSH1 0x0 DUP4 DUP2 MSTORE PUSH1 0x20 ADD SWAP1 DUP2 MSTORE PUSH1 0x20 ADD PUSH1 0x0 KECCAK256 SWAP1 POP PUSH1 0x1 PUSH1 0x4 DUP2 GT ISZERO PUSH2 0x2A2 JUMPI PUSH2 0x2A1 PUSH2 0xBBB JUMP JUMPDEST JUMPDEST DUP2 PUSH1 0x4 ADD PUSH1 0x0 SWAP1 SLOAD SWAP1 PUSH2 0x100 EXP SWAP1 DIV PUSH1 0xFF AND PUSH1 0x4 DUP2 GT ISZERO PUSH2 0x2C6 JUMPI PUSH2 0x2C5 PUSH2 0xBBB JUMP JUMPDEST JUMPDEST EQ PUSH2 0x306 JUMPI PUSH1 0x40 MLOAD PUSH32 0x8C379A000000000000000000000000000000000000000000000000000000000 DUP2 MSTORE PUSH1 0x4 ADD PUSH2 0x2FD SWAP1 PUSH2 0xDD5 JUMP JUMPDEST PUSH1 0x40 MLOAD DUP1 SWAP2 SUB SWAP1 REVERT JUMPDEST PUSH1 0x3 DUP2 PUSH1 0x4 ADD PUSH1 0x0 PUSH2 0x100 EXP DUP2 SLOAD DUP2 PUSH1 0xFF MUL NOT AND SWAP1 DUP4 PUSH1 0x4 DUP2 GT ISZERO PUSH2 0x32E JUMPI PUSH2 0x32D PUSH2 0xBBB JUMP JUMPDEST JUMPDEST MUL OR SWAP1 SSTORE POP PUSH1 0x0 DUP2 PUSH1 0x1 ADD PUSH1 0x0 SWAP1 SLOAD SWAP1 PUSH2 0x100 EXP SWAP1 DIV PUSH20 0xFFFFFFFFFFFFFFFFFFFFFFFFFFFFFFFFFFFFFFFF AND PUSH20 0xFFFFFFFFFFFFFFFFFFFFFFFFFFFFFFFFFFFFFFFF AND DUP3 PUSH1 0x3 ADD SLOAD PUSH1 0x40 MLOAD PUSH2 0x381 SWAP1 PUSH2 0xE26 JUMP JUMPDEST PUSH1 0x0 PUSH1 0x40 MLOAD DUP1 DUP4 SUB DUP2 DUP6 DUP8 GAS CALL SWAP3 POP POP POP RETURNDATASIZE DUP1 PUSH1 0x0 DUP2 EQ PUSH2 0x3BE JUMPI PUSH1 0x40 MLOAD SWAP2 POP PUSH1 0x1F NOT PUSH1 0x3F RETURNDATASIZE ADD AND DUP3 ADD PUSH1 0x40 MSTORE RETURNDATASIZE DUP3 MSTORE RETURNDATASIZE PUSH1 0x0 PUSH1 0x20 DUP5 ADD RETURNDATACOPY PUSH2 0x3C3 JUMP JUMPDEST PUSH1 0x60 SWAP2 POP JUMPDEST POP POP SWAP1 POP DUP1 PUSH2 0x407 JUMPI PUSH1 0x40 MLOAD PUSH32 0x8C379A000000000000000000000000000000000000000000000000000000000 DUP2 MSTORE PUSH1 0x4 ADD PUSH2 0x3FE SWAP1 PUSH2 0xE87 JUMP JUMPDEST PUSH1 0x40 MLOAD DUP1 SWAP2 SUB SWAP1 REVERT JUMPDEST PUSH32 0x7C047A089FA2E9A1F6B9EC9C93CDE8781FCE7EBF51035DA0A2D375F26D0E970A DUP4 DUP4 PUSH1 0x3 ADD SLOAD PUSH1 0x40 MLOAD PUSH2 0x43C SWAP3 SWAP2 SWAP1 PUSH2 0xEA7 JUMP JUMPDEST PUSH1 0x40 MLOAD DUP1 SWAP2 SUB SWAP1 LOG1 POP POP PUSH2 0x44E PUSH2 0xA54 JUMP JUMPDEST POP JUMP JUMPDEST PUSH1 0x1 PUSH1 0x0 SWAP1 SLOAD SWAP1 PUSH2 0x100 EXP SWAP1 DIV PUSH20 0xFFFFFFFFFFFFFFFFFFFFFFFFFFFFFFFFFFFFFFFF AND DUP2 JUMP JUMPDEST PUSH1 0x1 PUSH1 0x0 SWAP1 SLOAD SWAP1 PUSH2 0x100 EXP SWAP1 DIV PUSH20 0xFFFFFFFFFFFFFFFFFFFFFFFFFFFFFFFFFFFFFFFF AND PUSH20 0xFFFFFFFFFFFFFFFFFFFFFFFFFFFFFFFFFFFFFFFF AND CALLER PUSH20 0xFFFFFFFFFFFFFFFFFFFFFFFFFFFFFFFFFFFFFFFF AND EQ PUSH2 0x507 JUMPI PUSH1 0x40 MLOAD PUSH32 0x8C379A000000000000000000000000000000000000000000000000000000000 DUP2 MSTORE PUSH1 0x4 ADD PUSH2 0x4FE SWAP1 PUSH2 0xD69 JUMP JUMPDEST PUSH1 0x40 MLOAD DUP1 SWAP2 SUB SWAP1 REVERT JUMPDEST PUSH2 0x50F PUSH2 0xA31 JUMP JUMPDEST PUSH1 0x0 DUP1 PUSH1 0x0 DUP4 DUP2 MSTORE PUSH1 0x20 ADD SWAP1 DUP2 MSTORE PUSH1 0x20 ADD PUSH1 0x0 KECCAK256 SWAP1 POP PUSH1 0x1 PUSH1 0x4 DUP2 GT ISZERO PUSH2 0x539 JUMPI PUSH2 0x538 PUSH2 0xBBB JUMP JUMPDEST JUMPDEST DUP2 PUSH1 0x4 ADD PUSH1 0x0 SWAP1 SLOAD SWAP1 PUSH2 0x100 EXP SWAP1 DIV PUSH1 0xFF AND PUSH1 0x4 DUP2 GT ISZERO PUSH2 0x55D JUMPI PUSH2 0x55C PUSH2 0xBBB JUMP JUMPDEST JUMPDEST EQ PUSH2 0x59D JUMPI PUSH1 0x40 MLOAD PUSH32 0x8C379A000000000000000000000000000000000000000000000000000000000 DUP2 MSTORE PUSH1 0x4 ADD PUSH2 0x594 SWAP1 PUSH2 0xDD5 JUMP JUMPDEST PUSH1 0x40 MLOAD DUP1 SWAP2 SUB SWAP1 REVERT JUMPDEST PUSH1 0x2 DUP2 PUSH1 0x4 ADD PUSH1 0x0 PUSH2 0x100 EXP DUP2 SLOAD DUP2 PUSH1 0xFF MUL NOT AND SWAP1 DUP4 PUSH1 0x4 DUP2 GT ISZERO PUSH2 0x5C5 JUMPI PUSH2 0x5C4 PUSH2 0xBBB JUMP JUMPDEST JUMPDEST MUL OR SWAP1 SSTORE POP PUSH1 0x0 DUP2 PUSH1 0x2 ADD PUSH1 0x0 SWAP1 SLOAD SWAP1 PUSH2 0x100 EXP SWAP1 DIV PUSH20 0xFFFFFFFFFFFFFFFFFFFFFFFFFFFFFFFFFFFFFFFF AND PUSH20 0xFFFFFFFFFFFFFFFFFFFFFFFFFFFFFFFFFFFFFFFF AND DUP3 PUSH1 0x3 ADD SLOAD PUSH1 0x40 MLOAD PUSH2 0x618 SWAP1 PUSH2 0xE26 JUMP JUMPDEST PUSH1 0x0 PUSH1 0x40 MLOAD DUP1 DUP4 SUB DUP2 DUP6 DUP8 GAS CALL SWAP3 POP POP POP RETURNDATASIZE DUP1 PUSH1 0x0 DUP2 EQ PUSH2 0x655 JUMPI PUSH1 0x40 MLOAD SWAP2 POP PUSH1 0x1F NOT PUSH1 0x3F RETURNDATASIZE ADD AND DUP3 ADD PUSH1 0x40 MSTORE RETURNDATASIZE DUP3 MSTORE RETURNDATASIZE PUSH1 0x0 PUSH1 0x20 DUP5 ADD RETURNDATACOPY PUSH2 0x65A JUMP JUMPDEST PUSH1 0x60 SWAP2 POP JUMPDEST POP POP SWAP1 POP DUP1 PUSH2 0x69E JUMPI PUSH1 0x40 MLOAD PUSH32 0x8C379A000000000000000000000000000000000000000000000000000000000 DUP2 MSTORE PUSH1 0x4 ADD PUSH2 0x695 SWAP1 PUSH2 0xE87 JUMP JUMPDEST PUSH1 0x40 MLOAD DUP1 SWAP2 SUB SWAP1 REVERT JUMPDEST PUSH32 0x80230996023D69B50793FA73F1919127C9D8E741D3989743C479169F22E7A288 DUP4 DUP4 PUSH1 0x3 ADD SLOAD PUSH1 0x40 MLOAD PUSH2 0x6D3 SWAP3 SWAP2 SWAP1 PUSH2 0xEA7 JUMP JUMPDEST PUSH1 0x40 MLOAD DUP1 SWAP2 SUB SWAP1 LOG1 POP POP PUSH2 0x6E5 PUSH2 0xA54 JUMP JUMPDEST POP JUMP JUMPDEST PUSH1 0x40 MLOAD DUP1 PUSH1 0xA0 ADD PUSH1 0x40 MSTORE DUP1 DUP4 DUP2 MSTORE PUSH1 0x20 ADD CALLER PUSH20 0xFFFFFFFFFFFFFFFFFFFFFFFFFFFFFFFFFFFFFFFF AND DUP2 MSTORE PUSH1 0x20 ADD DUP3 PUSH20 0xFFFFFFFFFFFFFFFFFFFFFFFFFFFFFFFFFFFFFFFF AND DUP2 MSTORE PUSH1 0x20 ADD CALLVALUE DUP2 MSTORE PUSH1 0x20 ADD PUSH1 0x1 PUSH1 0x4 DUP2 GT ISZERO PUSH2 0x74B JUMPI PUSH2 0x74A PUSH2 0xBBB JUMP JUMPDEST JUMPDEST DUP2 MSTORE POP PUSH1 0x0 DUP1 DUP5 DUP2 MSTORE PUSH1 0x20 ADD SWAP1 DUP2 MSTORE PUSH1 0x20 ADD PUSH1 0x0 KECCAK256 PUSH1 0x0 DUP3 ADD MLOAD DUP2 PUSH1 0x0 ADD SSTORE PUSH1 0x20 DUP3 ADD MLOAD DUP2 PUSH1 0x1 ADD PUSH1 0x0 PUSH2 0x100 EXP DUP2 SLOAD DUP2 PUSH20 0xFFFFFFFFFFFFFFFFFFFFFFFFFFFFFFFFFFFFFFFF MUL NOT AND SWAP1 DUP4 PUSH20 0xFFFFFFFFFFFFFFFFFFFFFFFFFFFFFFFFFFFFFFFF AND MUL OR SWAP1 SSTORE POP PUSH1 0x40 DUP3 ADD MLOAD DUP2 PUSH1 0x2 ADD PUSH1 0x0 PUSH2 0x100 EXP DUP2 SLOAD DUP2 PUSH20 0xFFFFFFFFFFFFFFFFFFFFFFFFFFFFFFFFFFFFFFFF MUL NOT AND SWAP1 DUP4 PUSH20 0xFFFFFFFFFFFFFFFFFFFFFFFFFFFFFFFFFFFFFFFF AND MUL OR SWAP1 SSTORE POP PUSH1 0x60 DUP3 ADD MLOAD DUP2 PUSH1 0x3 ADD SSTORE PUSH1 0x80 DUP3 ADD MLOAD DUP2 PUSH1 0x4 ADD PUSH1 0x0 PUSH2 0x100 EXP DUP2 SLOAD DUP2 PUSH1 0xFF MUL NOT AND SWAP1 DUP4 PUSH1 0x4 DUP2 GT ISZERO PUSH2 0x82D JUMPI PUSH2 0x82C PUSH2 0xBBB JUMP JUMPDEST JUMPDEST MUL OR SWAP1 SSTORE POP SWAP1 POP POP PUSH32 0xD2F8783C4926A733836E2CADEE280C75BDF4E94B713459C91A0DA70A778FB527 DUP3 CALLVALUE PUSH1 0x40 MLOAD PUSH2 0x866 SWAP3 SWAP2 SWAP1 PUSH2 0xEA7 JUMP JUMPDEST PUSH1 0x40 MLOAD DUP1 SWAP2 SUB SWAP1 LOG1 PUSH32 0x911052E1BE46242B46BF3C2762227FF37C000E5FE38727638096F3A17FBFE170 DUP3 CALLVALUE PUSH1 0x40 MLOAD PUSH2 0x89F SWAP3 SWAP2 SWAP1 PUSH2 0xEA7 JUMP JUMPDEST PUSH1 0x40 MLOAD DUP1 SWAP2 SUB SWAP1 LOG1 POP POP JUMP JUMPDEST PUSH1 0x1 PUSH1 0x0 SWAP1 SLOAD SWAP1 PUSH2 0x100 EXP SWAP1 DIV PUSH20 0xFFFFFFFFFFFFFFFFFFFFFFFFFFFFFFFFFFFFFFFF AND PUSH20 0xFFFFFFFFFFFFFFFFFFFFFFFFFFFFFFFFFFFFFFFF AND CALLER PUSH20 0xFFFFFFFFFFFFFFFFFFFFFFFFFFFFFFFFFFFFFFFF AND EQ PUSH2 0x93B JUMPI PUSH1 0x40 MLOAD PUSH32 0x8C379A000000000000000000000000000000000000000000000000000000000 DUP2 MSTORE PUSH1 0x4 ADD PUSH2 0x932 SWAP1 PUSH2 0xD69 JUMP JUMPDEST PUSH1 0x40 MLOAD DUP1 SWAP2 SUB SWAP1 REVERT JUMPDEST PUSH1 0x0 DUP1 PUSH1 0x0 DUP4 DUP2 MSTORE PUSH1 0x20 ADD SWAP1 DUP2 MSTORE PUSH1 0x20 ADD PUSH1 0x0 KECCAK256 SWAP1 POP PUSH1 0x1 PUSH1 0x4 DUP2 GT ISZERO PUSH2 0x965 JUMPI PUSH2 0x964 PUSH2 0xBBB JUMP JUMPDEST JUMPDEST DUP2 PUSH1 0x4 ADD PUSH1 0x0 SWAP1 SLOAD SWAP1 PUSH2 0x100 EXP SWAP1 DIV PUSH1 0xFF AND PUSH1 0x4 DUP2 GT ISZERO PUSH2 0x989 JUMPI PUSH2 0x988 PUSH2 0xBBB JUMP JUMPDEST JUMPDEST EQ PUSH2 0x9C9 JUMPI PUSH1 0x40 MLOAD PUSH32 0x8C379A000000000000000000000000000000000000000000000000000000000 DUP2 MSTORE PUSH1 0x4 ADD PUSH2 0x9C0 SWAP1 PUSH2 0xDD5 JUMP JUMPDEST PUSH1 0x40 MLOAD DUP1 SWAP2 SUB SWAP1 REVERT JUMPDEST PUSH1 0x4 DUP2 PUSH1 0x4 ADD PUSH1 0x0 PUSH2 0x100 EXP DUP2 SLOAD DUP2 PUSH1 0xFF MUL NOT AND SWAP1 DUP4 PUSH1 0x4 DUP2 GT ISZERO PUSH2 0x9F1 JUMPI PUSH2 0x9F0 PUSH2 0xBBB JUMP JUMPDEST JUMPDEST MUL OR SWAP1 SSTORE POP PUSH32 0xBE2BFD9A209A03099B196CE5A374776DB5C25DADB3A1E69758070E54553DB442 DUP3 PUSH1 0x40 MLOAD PUSH2 0xA25 SWAP2 SWAP1 PUSH2 0xED0 JUMP JUMPDEST PUSH1 0x40 MLOAD DUP1 SWAP2 SUB SWAP1 LOG1 POP POP JUMP JUMPDEST PUSH2 0xA39 PUSH2 0xA6F JUMP JUMPDEST PUSH1 0x2 PUSH2 0xA4B PUSH2 0xA46 PUSH2 0xAB0 JUMP JUMPDEST PUSH2 0xADB JUMP JUMPDEST PUSH1 0x0 ADD DUP2 SWAP1 SSTORE POP JUMP JUMPDEST PUSH1 0x1 PUSH2 0xA66 PUSH2 0xA61 PUSH2 0xAB0 JUMP JUMPDEST PUSH2 0xADB JUMP JUMPDEST PUSH1 0x0 ADD DUP2 SWAP1 SSTORE POP JUMP JUMPDEST PUSH2 0xA77 PUSH2 0xAE5 JUMP JUMPDEST ISZERO PUSH2 0xAAE JUMPI PUSH1 0x40 MLOAD PUSH32 0x3EE5AEB500000000000000000000000000000000000000000000000000000000 DUP2 MSTORE PUSH1 0x4 ADD PUSH1 0x40 MLOAD DUP1 SWAP2 SUB SWAP1 REVERT JUMPDEST JUMP JUMPDEST PUSH1 0x0 PUSH32 0x9B779B17422D0DF92223018B32B4D1FA46E071723D6817E2486D003BECC55F00 PUSH1 0x0 SHL SWAP1 POP SWAP1 JUMP JUMPDEST PUSH1 0x0 DUP2 SWAP1 POP SWAP2 SWAP1 POP JUMP JUMPDEST PUSH1 0x0 PUSH1 0x2 PUSH2 0xAF9 PUSH2 0xAF4 PUSH2 0xAB0 JUMP JUMPDEST PUSH2 0xADB JUMP JUMPDEST PUSH1 0x0 ADD SLOAD EQ SWAP1 POP SWAP1 JUMP JUMPDEST PUSH1 0x0 DUP1 REVERT JUMPDEST PUSH1 0x0 DUP2 SWAP1 POP SWAP2 SWAP1 POP JUMP JUMPDEST PUSH2 0xB1B DUP2 PUSH2 0xB08 JUMP JUMPDEST DUP2 EQ PUSH2 0xB26 JUMPI PUSH1 0x0 DUP1 REVERT JUMPDEST POP JUMP JUMPDEST PUSH1 0x0 DUP2 CALLDATALOAD SWAP1 POP PUSH2 0xB38 DUP2 PUSH2 0xB12 JUMP JUMPDEST SWAP3 SWAP2 POP POP JUMP JUMPDEST PUSH1 0x0 PUSH1 0x20 DUP3 DUP5 SUB SLT ISZERO PUSH2 0xB54 JUMPI PUSH2 0xB53 PUSH2 0xB03 JUMP JUMPDEST JUMPDEST PUSH1 0x0 PUSH2 0xB62 DUP5 DUP3 DUP6 ADD PUSH2 0xB29 JUMP JUMPDEST SWAP2 POP POP SWAP3 SWAP2 POP POP JUMP JUMPDEST PUSH2 0xB74 DUP2 PUSH2 0xB08 JUMP JUMPDEST DUP3 MSTORE POP POP JUMP JUMPDEST PUSH1 0x0 PUSH20 0xFFFFFFFFFFFFFFFFFFFFFFFFFFFFFFFFFFFFFFFF DUP3 AND SWAP1 POP SWAP2 SWAP1 POP JUMP JUMPDEST PUSH1 0x0 PUSH2 0xBA5 DUP3 PUSH2 0xB7A JUMP JUMPDEST SWAP1 POP SWAP2 SWAP1 POP JUMP JUMPDEST PUSH2 0xBB5 DUP2 PUSH2 0xB9A JUMP JUMPDEST DUP3 MSTORE POP POP JUMP JUMPDEST PUSH32 0x4E487B7100000000000000000000000000000000000000000000000000000000 PUSH1 0x0 MSTORE PUSH1 0x21 PUSH1 0x4 MSTORE PUSH1 0x24 PUSH1 0x0 REVERT JUMPDEST PUSH1 0x5 DUP2 LT PUSH2 0xBFB JUMPI PUSH2 0xBFA PUSH2 0xBBB JUMP JUMPDEST JUMPDEST POP JUMP JUMPDEST PUSH1 0x0 DUP2 SWAP1 POP PUSH2 0xC0C DUP3 PUSH2 0xBEA JUMP JUMPDEST SWAP2 SWAP1 POP JUMP JUMPDEST PUSH1 0x0 PUSH2 0xC1C DUP3 PUSH2 0xBFE JUMP JUMPDEST SWAP1 POP SWAP2 SWAP1 POP JUMP JUMPDEST PUSH2 0xC2C DUP2 PUSH2 0xC11 JUMP JUMPDEST DUP3 MSTORE POP POP JUMP JUMPDEST PUSH1 0x0 PUSH1 0xA0 DUP3 ADD SWAP1 POP PUSH2 0xC47 PUSH1 0x0 DUP4 ADD DUP9 PUSH2 0xB6B JUMP JUMPDEST PUSH2 0xC54 PUSH1 0x20 DUP4 ADD DUP8 PUSH2 0xBAC JUMP JUMPDEST PUSH2 0xC61 PUSH1 0x40 DUP4 ADD DUP7 PUSH2 0xBAC JUMP JUMPDEST PUSH2 0xC6E PUSH1 0x60 DUP4 ADD DUP6 PUSH2 0xB6B JUMP JUMPDEST PUSH2 0xC7B PUSH1 0x80 DUP4 ADD DUP5 PUSH2 0xC23 JUMP JUMPDEST SWAP7 SWAP6 POP POP POP POP POP POP JUMP JUMPDEST PUSH1 0x0 PUSH1 0x20 DUP3 ADD SWAP1 POP PUSH2 0xC9A PUSH1 0x0 DUP4 ADD DUP5 PUSH2 0xBAC JUMP JUMPDEST SWAP3 SWAP2 POP POP JUMP JUMPDEST PUSH2 0xCA9 DUP2 PUSH2 0xB9A JUMP JUMPDEST DUP2 EQ PUSH2 0xCB4 JUMPI PUSH1 0x0 DUP1 REVERT JUMPDEST POP JUMP JUMPDEST PUSH1 0x0 DUP2 CALLDATALOAD SWAP1 POP PUSH2 0xCC6 DUP2 PUSH2 0xCA0 JUMP JUMPDEST SWAP3 SWAP2 POP POP JUMP JUMPDEST PUSH1 0x0 DUP1 PUSH1 0x40 DUP4 DUP6 SUB SLT ISZERO PUSH2 0xCE3 JUMPI PUSH2 0xCE2 PUSH2 0xB03 JUMP JUMPDEST JUMPDEST PUSH1 0x0 PUSH2 0xCF1 DUP6 DUP3 DUP7 ADD PUSH2 0xB29 JUMP JUMPDEST SWAP3 POP POP PUSH1 0x20 PUSH2 0xD02 DUP6 DUP3 DUP7 ADD PUSH2 0xCB7 JUMP JUMPDEST SWAP2 POP POP SWAP3 POP SWAP3 SWAP1 POP JUMP JUMPDEST PUSH1 0x0 DUP3 DUP3 MSTORE PUSH1 0x20 DUP3 ADD SWAP1 POP SWAP3 SWAP2 POP POP JUMP JUMPDEST PUSH32 0x4E6F7420617574686F72697A6564000000000000000000000000000000000000 PUSH1 0x0 DUP3 ADD MSTORE POP JUMP JUMPDEST PUSH1 0x0 PUSH2 0xD53 PUSH1 0xE DUP4 PUSH2 0xD0C JUMP JUMPDEST SWAP2 POP PUSH2 0xD5E DUP3 PUSH2 0xD1D JUMP JUMPDEST PUSH1 0x20 DUP3 ADD SWAP1 POP SWAP2 SWAP1 POP JUMP JUMPDEST PUSH1 0x0 PUSH1 0x20 DUP3 ADD SWAP1 POP DUP2 DUP2 SUB PUSH1 0x0 DUP4 ADD MSTORE PUSH2 0xD82 DUP2 PUSH2 0xD46 JUMP JUMPDEST SWAP1 POP SWAP2 SWAP1 POP JUMP JUMPDEST PUSH32 0x4E6F742066756E6461626C650000000000000000000000000000000000000000 PUSH1 0x0 DUP3 ADD MSTORE POP JUMP JUMPDEST PUSH1 0x0 PUSH2 0xDBF PUSH1 0xC DUP4 PUSH2 0xD0C JUMP JUMPDEST SWAP2 POP PUSH2 0xDCA DUP3 PUSH2 0xD89 JUMP JUMPDEST PUSH1 0x20 DUP3 ADD SWAP1 POP SWAP2 SWAP1 POP JUMP JUMPDEST PUSH1 0x0 PUSH1 0x20 DUP3 ADD SWAP1 POP DUP2 DUP2 SUB PUSH1 0x0 DUP4 ADD MSTORE PUSH2 0xDEE DUP2 PUSH2 0xDB2 JUMP JUMPDEST SWAP1 POP SWAP2 SWAP1 POP JUMP JUMPDEST PUSH1 0x0 DUP2 SWAP1 POP SWAP3 SWAP2 POP POP JUMP JUMPDEST POP JUMP JUMPDEST PUSH1 0x0 PUSH2 0xE10 PUSH1 0x0 DUP4 PUSH2 0xDF5 JUMP JUMPDEST SWAP2 POP PUSH2 0xE1B DUP3 PUSH2 0xE00 JUMP JUMPDEST PUSH1 0x0 DUP3 ADD SWAP1 POP SWAP2 SWAP1 POP JUMP JUMPDEST PUSH1 0x0 PUSH2 0xE31 DUP3 PUSH2 0xE03 JUMP JUMPDEST SWAP2 POP DUP2 SWAP1 POP SWAP2 SWAP1 POP JUMP JUMPDEST PUSH32 0x5472616E73666572206661696C65640000000000000000000000000000000000 PUSH1 0x0 DUP3 ADD MSTORE POP JUMP JUMPDEST PUSH1 0x0 PUSH2 0xE71 PUSH1 0xF DUP4 PUSH2 0xD0C JUMP JUMPDEST SWAP2 POP PUSH2 0xE7C DUP3 PUSH2 0xE3B JUMP JUMPDEST PUSH1 0x20 DUP3 ADD SWAP1 POP SWAP2 SWAP1 POP JUMP JUMPDEST PUSH1 0x0 PUSH1 0x20 DUP3 ADD SWAP1 POP DUP2 DUP2 SUB PUSH1 0x0 DUP4 ADD MSTORE PUSH2 0xEA0 DUP2 PUSH2 0xE64 JUMP JUMPDEST SWAP1 POP SWAP2 SWAP1 POP JUMP JUMPDEST PUSH1 0x0 PUSH1 0x40 DUP3 ADD SWAP1 POP PUSH2 0xEBC PUSH1 0x0 DUP4 ADD DUP6 PUSH2 0xB6B JUMP JUMPDEST PUSH2 0xEC9 PUSH1 0x20 DUP4 ADD DUP5 PUSH2 0xB6B JUMP JUMPDEST SWAP4 SWAP3 POP POP POP JUMP JUMPDEST PUSH1 0x0 PUSH1 0x20 DUP3 ADD SWAP1 POP PUSH2 0xEE5 PUSH1 0x0 DUP4 ADD DUP5 PUSH2 0xB6B JUMP JUMPDEST SWAP3 SWAP2 POP POP JUMP INVALID LOG2 PUSH5 0x6970667358 0x22 SLT KECCAK256 DUP2 0xC8 SDIV 0xC XOR 0xF7 0x23 DUP10 DUP1 EQ 0xE3 PUSH19 0x7FD4F0AF9E44D12E6E3622B2DC045208AE2F4E 0x2F PUSH5 0x736F6C6343 STOP ADDMOD EQ STOP CALLER "},"methodIdentifiers":{"authorizedSettlementEngine()":"2311580f","createEscrow(uint256,address)":"dbcd72f0","escrows(uint256)":"012f52ee","freezeEscrow(uint256)":"e1005067","refundFunds(uint256)":"15f1bbfe","releaseFunds(uint256)":"4d68282f"}}}}}