{
  "_format": "hh-sol-artifact-1",
  "contractName": "AESSEscrow",
  "sourceName": "contracts/AESSEscrow.sol",
  "abi": [
    {
      "inputs": [
        {
          "internalType": "address",
          "name": "_settlementEngine",
          "type": "address"
        }
      ],
      "stateMutability": "nonpayable",
      "type": "constructor"
    },
    {
      "inputs": [],
      "name": "ReentrancyGuardReentrantCall",
      "type": "error"
    },
    {
      "anonymous": false,
      "inputs": [
        {
          "indexed": false,
          "internalType": "uint256",
          "name": "agreementId",
          "type": "uint256"
        },
        {
          "indexed": false,
          "internalType": "uint256",
          "name": "amount",
          "type": "uint256"
        }
      ],
      "name": "EscrowCreated",
      "type": "event"
    },
    {
      "anonymous": false,
      "inputs": [
        {
          "indexed": false,
          "internalType": "uint256",
          "name": "agreementId",
          "type": "uint256"
        }
      ],
      "name": "EscrowFrozen",
      "type": "event"
    },
    {
      "anonymous": false,
      "inputs": [
        {
          "indexed": false,
          "internalType": "uint256",
          "name": "agreementId",
          "type": "uint256"
        },
        {
          "indexed": false,
          "internalType": "uint256",
          "name": "amount",
          "type": "uint256"
        }
      ],
      "name": "EscrowFunded",
      "type": "event"
    },
    {
      "anonymous": false,
      "inputs": [
        {
          "indexed": false,
          "internalType": "uint256",
          "name": "agreementId",
          "type": "uint256"
        },
        {
          "indexed": false,
          "internalType": "uint256",
          "name": "amount",
          "type": "uint256"
        }
      ],
      "name": "FundsRefunded",
      "type": "event"
    },
    {
      "anonymous": false,
      "inputs": [
        {
          "indexed": false,
          "internalType": "uint256",
          "name": "agreementId",
          "type": "uint256"
        },
        {
          "indexed": false,
          "internalType": "uint256",
          "name": "amount",
          "type": "uint256"
        }
      ],
      "name": "FundsReleased",
      "type": "event"
    },
    {
      "inputs": [],
      "name": "authorizedSettlementEngine",
      "outputs": [
        {
          "internalType": "address",
          "name": "",
          "type": "address"
        }
      ],
      "stateMutability": "view",
      "type": "function"
    },
    {
      "inputs": [
        {
          "internalType": "uint256",
          "name": "_agreementId",
          "type": "uint256"
        },
        {
          "internalType": "address",
          "name": "_worker",
          "type": "address"
        }
      ],
      "name": "createEscrow",
      "outputs": [],
      "stateMutability": "payable",
      "type": "function"
    },
    {
      "inputs": [
        {
          "internalType": "uint256",
          "name": "",
          "type": "uint256"
        }
      ],
      "name": "escrows",
      "outputs": [
        {
          "internalType": "uint256",
          "name": "agreementId",
          "type": "uint256"
        },
        {
          "internalType": "address",
          "name": "payer",
          "type": "address"
        },
        {
          "internalType": "address",
          "name": "worker",
          "type": "address"
        },
        {
          "internalType": "uint256",
          "name": "amount",
          "type": "uint256"
        },
        {
          "internalType": "enum AESSEscrow.EscrowStatus",
          "name": "status",
          "type": "uint8"
        }
      ],
      "stateMutability": "view",
      "type": "function"
    },
    {
      "inputs": [
        {
          "internalType": "uint256",
          "name": "_agreementId",
          "type": "uint256"
        }
      ],
      "name": "freezeEscrow",
      "outputs": [],
      "stateMutability": "nonpayable",
      "type": "function"
    },
    {
      "inputs": [
        {
          "internalType": "uint256",
          "name": "_agreementId",
          "type": "uint256"
        }
      ],
      "name": "refundFunds",
      "outputs": [],
      "stateMutability": "nonpayable",
      "type": "function"
    },
    {
      "inputs": [
        {
          "internalType": "uint256",
          "name": "_agreementId",
          "type": "uint256"
        }
      ],
      "name": "releaseFunds",
      "outputs": [],
      "stateMutability": "nonpayable",
      "type": "function"
    }
  ],
  "bytecode": "0x60806040523480156200001157600080fd5b50604051620010aa380380620010aa833981810160405281019062000037919062000147565b6001620000596200004d620000a860201b60201c565b620000d360201b60201c565b6000018190555080600160006101000a81548173ffffffffffffffffffffffffffffffffffffffff021916908373ffffffffffffffffffffffffffffffffffffffff1602179055505062000179565b60007f9b779b17422d0df92223018b32b4d1fa46e071723d6817e2486d003becc55f0060001b905090565b6000819050919050565b600080fd5b600073ffffffffffffffffffffffffffffffffffffffff82169050919050565b60006200010f82620000e2565b9050919050565b620001218162000102565b81146200012d57600080fd5b50565b600081519050620001418162000116565b92915050565b60006020828403121562000160576200015f620000dd565b5b6000620001708482850162000130565b91505092915050565b610f2180620001896000396000f3fe6080604052600436106100555760003560e01c8063012f52ee1461005a57806315f1bbfe1461009b5780632311580f146100c45780634d68282f146100ef578063dbcd72f014610118578063e100506714610134575b600080fd5b34801561006657600080fd5b50610081600480360381019061007c9190610b3e565b61015d565b604051610092959493929190610c32565b60405180910390f35b3480156100a757600080fd5b506100c260048036038101906100bd9190610b3e565b6101e0565b005b3480156100d057600080fd5b506100d9610451565b6040516100e69190610c85565b60405180910390f35b3480156100fb57600080fd5b5061011660048036038101906101119190610b3e565b610477565b005b610132600480360381019061012d9190610ccc565b6106e8565b005b34801561014057600080fd5b5061015b60048036038101906101569190610b3e565b6108ab565b005b60006020528060005260406000206000915090508060000154908060010160009054906101000a900473ffffffffffffffffffffffffffffffffffffffff16908060020160009054906101000a900473ffffffffffffffffffffffffffffffffffffffff16908060030154908060040160009054906101000a900460ff16905085565b600160009054906101000a900473ffffffffffffffffffffffffffffffffffffffff1673ffffffffffffffffffffffffffffffffffffffff163373ffffffffffffffffffffffffffffffffffffffff1614610270576040517f08c379a000000000000000000000000000000000000000000000000000000000815260040161026790610d69565b60405180910390fd5b610278610a31565b60008060008381526020019081526020016000209050600160048111156102a2576102a1610bbb565b5b8160040160009054906101000a900460ff1660048111156102c6576102c5610bbb565b5b14610306576040517f08c379a00000000000000000000000000000000000000000000000000000000081526004016102fd90610dd5565b60405180910390fd5b60038160040160006101000a81548160ff0219169083600481111561032e5761032d610bbb565b5b021790555060008160010160009054906101000a900473ffffffffffffffffffffffffffffffffffffffff1673ffffffffffffffffffffffffffffffffffffffff16826003015460405161038190610e26565b60006040518083038185875af1925050503d80600081146103be576040519150601f19603f3d011682016040523d82523d6000602084013e6103c3565b606091505b5050905080610407576040517f08c379a00000000000000000000000000000000000000000000000000000000081526004016103fe90610e87565b60405180910390fd5b7f7c047a089fa2e9a1f6b9ec9c93cde8781fce7ebf51035da0a2d375f26d0e970a83836003015460405161043c929190610ea7565b60405180910390a1505061044e610a54565b50565b600160009054906101000a900473ffffffffffffffffffffffffffffffffffffffff1681565b600160009054906101000a900473ffffffffffffffffffffffffffffffffffffffff1673ffffffffffffffffffffffffffffffffffffffff163373ffffffffffffffffffffffffffffffffffffffff1614610507576040517f08c379a00000000000000000000000000000000000000000000000000000000081526004016104fe90610d69565b60405180910390fd5b61050f610a31565b600080600083815260200190815260200160002090506001600481111561053957610538610bbb565b5b8160040160009054906101000a900460ff16600481111561055d5761055c610bbb565b5b1461059d576040517f08c379a000000000000000000000000000000000000000000000000000000000815260040161059490610dd5565b60405180910390fd5b60028160040160006101000a81548160ff021916908360048111156105c5576105c4610bbb565b5b021790555060008160020160009054906101000a900473ffffffffffffffffffffffffffffffffffffffff1673ffffffffffffffffffffffffffffffffffffffff16826003015460405161061890610e26565b60006040518083038185875af1925050503d8060008114610655576040519150601f19603f3d011682016040523d82523d6000602084013e61065a565b606091505b505090508061069e576040517f08c379a000000000000000000000000000000000000000000000000000000000815260040161069590610e87565b60405180910390fd5b7f80230996023d69b50793fa73f1919127c9d8e741d3989743c479169f22e7a2888383600301546040516106d3929190610ea7565b60405180910390a150506106e5610a54565b50565b6040518060a001604052808381526020013373ffffffffffffffffffffffffffffffffffffffff1681526020018273ffffffffffffffffffffffffffffffffffffffff1681526020013481526020016001600481111561074b5761074a610bbb565b5b8152506000808481526020019081526020016000206000820151816000015560208201518160010160006101000a81548173ffffffffffffffffffffffffffffffffffffffff021916908373ffffffffffffffffffffffffffffffffffffffff16021790555060408201518160020160006101000a81548173ffffffffffffffffffffffffffffffffffffffff021916908373ffffffffffffffffffffffffffffffffffffffff1602179055506060820151816003015560808201518160040160006101000a81548160ff0219169083600481111561082d5761082c610bbb565b5b02179055509050507fd2f8783c4926a733836e2cadee280c75bdf4e94b713459c91a0da70a778fb5278234604051610866929190610ea7565b60405180910390a17f911052e1be46242b46bf3c2762227ff37c000e5fe38727638096f3a17fbfe170823460405161089f929190610ea7565b60405180910390a15050565b600160009054906101000a900473ffffffffffffffffffffffffffffffffffffffff1673ffffffffffffffffffffffffffffffffffffffff163373ffffffffffffffffffffffffffffffffffffffff161461093b576040517f08c379a000000000000000000000000000000000000000000000000000000000815260040161093290610d69565b60405180910390fd5b600080600083815260200190815260200160002090506001600481111561096557610964610bbb565b5b8160040160009054906101000a900460ff16600481111561098957610988610bbb565b5b146109c9576040517f08c379a00000000000000000000000000000000000000000000000000000000081526004016109c090610dd5565b60405180910390fd5b60048160040160006101000a81548160ff021916908360048111156109f1576109f0610bbb565b5b02179055507fbe2bfd9a209a03099b196ce5a374776db5c25dadb3a1e69758070e54553db44282604051610a259190610ed0565b60405180910390a15050565b610a39610a6f565b6002610a4b610a46610ab0565b610adb565b60000181905550565b6001610a66610a61610ab0565b610adb565b60000181905550565b610a77610ae5565b15610aae576040517f3ee5aeb500000000000000000000000000000000000000000000000000000000815260040160405180910390fd5b565b60007f9b779b17422d0df92223018b32b4d1fa46e071723d6817e2486d003becc55f0060001b905090565b6000819050919050565b60006002610af9610af4610ab0565b610adb565b6000015414905090565b600080fd5b6000819050919050565b610b1b81610b08565b8114610b2657600080fd5b50565b600081359050610b3881610b12565b92915050565b600060208284031215610b5457610b53610b03565b5b6000610b6284828501610b29565b91505092915050565b610b7481610b08565b82525050565b600073ffffffffffffffffffffffffffffffffffffffff82169050919050565b6000610ba582610b7a565b9050919050565b610bb581610b9a565b82525050565b7f4e487b7100000000000000000000000000000000000000000000000000000000600052602160045260246000fd5b60058110610bfb57610bfa610bbb565b5b50565b6000819050610c0c82610bea565b919050565b6000610c1c82610bfe565b9050919050565b610c2c81610c11565b82525050565b600060a082019050610c476000830188610b6b565b610c546020830187610bac565b610c616040830186610bac565b610c6e6060830185610b6b565b610c7b6080830184610c23565b9695505050505050565b6000602082019050610c9a6000830184610bac565b92915050565b610ca981610b9a565b8114610cb457600080fd5b50565b600081359050610cc681610ca0565b92915050565b60008060408385031215610ce357610ce2610b03565b5b6000610cf185828601610b29565b9250506020610d0285828601610cb7565b9150509250929050565b600082825260208201905092915050565b7f4e6f7420617574686f72697a6564000000000000000000000000000000000000600082015250565b6000610d53600e83610d0c565b9150610d5e82610d1d565b602082019050919050565b60006020820190508181036000830152610d8281610d46565b9050919050565b7f4e6f742066756e6461626c650000000000000000000000000000000000000000600082015250565b6000610dbf600c83610d0c565b9150610dca82610d89565b602082019050919050565b60006020820190508181036000830152610dee81610db2565b9050919050565b600081905092915050565b50565b6000610e10600083610df5565b9150610e1b82610e00565b600082019050919050565b6000610e3182610e03565b9150819050919050565b7f5472616e73666572206661696c65640000000000000000000000000000000000600082015250565b6000610e71600f83610d0c565b9150610e7c82610e3b565b602082019050919050565b60006020820190508181036000830152610ea081610e64565b9050919050565b6000604082019050610ebc6000830185610b6b565b610ec96020830184610b6b565b9392505050565b6000602082019050610ee56000830184610b6b565b9291505056fea264697066735822122081c8050c18f723898014e3727fd4f0af9e44d12e6e3622b2dc045208ae2f4e2f64736f6c63430008140033",
  "linkReferences": {},
  "deployedLinkReferences": {}
}